:100000000C94CE030C94EB030C94EB030C94EB03D5
:100010000C94EB030C94EB030C94EB030C94EB03A8
:100020000C94EB030C94EB030C94881D0C94CA1CE9
:100030000C9449260C94EB030C94EB030C94EB0307
:100040000C94EB030C94EB030C94EB030C94EB0378
:100050000C94EB030C9408260C94EB030C94EB0328
:100060000C94EB030C94EB030C94EB030C94EB0358
:100070000C94EB030C94EB030C94EB030C94EB0348
:100080000C94EB030C94EB030C94EB030C94EB0338
:100090000C94EB030C94EB030C94EB030C94EB0328
:1000A0000C94EB030C94EB030C94EB033207320734
:1000B00061076107CB07E707F108F108F207660857
:1000C0007708770899179E17A8179C17A117A617E6
:1000D000A417D218D518D818DB18DE18E118E418C0
:1000E000DD1A041BB21C041BB21C501B731BB21C78
:1000F000681C781C1E0F0500047F3F1F64321464C7
:100100003214783C1E1E140A0500572B002943E1C7
:1001100000010000001E00140004421D6101004D9A
:10012000641F001A0016001B00E2004C412000086A
:10013000000700060001572A0021001500090019D8
:100140000002574A00220017000A0005000000655F
:100150000001000100000049000000010001000151
:100160000000004C090000010023001C000B0011DE
:100170000000000100240018000D00100052004B88
:100180000025000C000E00360051002C0026001245
:10019000000F0037000100280027001300337438D7
:1001A0007101004E68035704573468E500010000F0
:1001B0000029002E0001000100010000003A001E8D
:1001C0000201002202010001003B001F0221022364
:1001D00002010001003C002F0226022F000100CB8B
:1001E0005C3D003002270230000100B65D3E003168
:1001F00002350035020000C45C010001000000016E
:10020000000000CA5C01002900000001000000C3DA
:100210005C3F005200510024020000B55D40002404
:100220000021001E003402B45D4100250022001FA1
:100230000037003702420026002300200027003646
:1002400002430025022E0231002E003800440045F2
:10025000002D002D0201000000010001000100013D
:100260000001000000010001000100010001000187
:100270000001000100EF000100010001000100ED9C
:1002800000EE000100F100010001000100F000019A
:1002900000F2000100010001000100010000000166
:1002A0000001000100000001000000010001000148
:1002B0000000000100000001000100010001000138
:1002C00000000001000100010001000100A900017F
:1002D00000010001000100AC00AA00C65C010001A1
:1002E000000100AB00A800C75C0100010001000193
:1002F0000001000100005C0100AE000100010000EF
:1003000000010001000100010001000000010001E6
:1003100000010001000100010001000100010001D5
:1003200000010001000100010001000100010001C5
:1003300000010001000100010001000100010001B5
:1003400000010001000000010001000100000001A7
:100350000000000100010001000000010000000198
:100360000001000601500301000000490001001BCC
:100370000101004A00B600010001001D0101004B0F
:1003800000B700010001001D0301004E0001000143
:10039000000100190101004D0001000100010001F0
:1003A00000010001000100000005010980A1018594
:1003B0000319012AB700150126B7009501751081B0
:1003C00000C0050C0901A101850419012AA002152C
:1003D0000126A002950175108100C005010906A142
:1003E000018506050719E029E7150025019508751F
:1003F0000181020507190029EF1500250195F07507
:1004000001810205081901290595057501910295DB
:100410000175039101C005010902A1010901A100B3
:1004200005091901290815002501950875018102A2
:100430000501093009311581257F9502750881066E
:1004400009381581257F950175088106050C0A3844
:10045000021581257F950175088106C0C00660FFE1
:100460000961A1010962150026FF00952075088128
:10047000020963150026FF00952075089102C0054A
:10048000010906A101050719E029E71500250195D5
:100490000875018102950175088101050719002978
:1004A000FF150026FF009506750881000508190153
:1004B0002905950575019102950175039101C00902
:1004C000027400040100A0FA090400000103010104
:1004D00000092111010001224000070581030800E5
:1004E00001090401000203000000092111010001BB
:1004F00022220007058303200001070504032000D2
:100500000109040200010301020009211101000197
:1005100022470007058203080001090403000103C4
:10052000000000092111010001226D00070585036B
:1005300020000112010002000000089732754901F5
:10054000000102000122034500720067006F0044B1
:10055000006F007800200045005A0020005300681A
:100560000069006E006500000028035A0053004136
:1005700000200054006500630068006E006F006C8E
:10058000006F006700790020004C0061006200737A
:10059000000000040309040001010101010101013F
:1005A0000102020202020202020203030303030326
:1005B00003030404040404040405050505050606F4
:1005C00006060607070707070808080809090909B2
:1005D0000A0A0A0B0B0B0C0C0C0D0D0D0E0E0E0F58
:1005E0000F0F1010111111121213131414151516E8
:1005F000161717181819191A1A1B1B1C1D1D1E1E59
:100600001F202021222223242425262627282929A9
:100610002A2B2C2D2D2E2F303132323334353637D4
:1006200038393A3B3C3D3E3F4041424344454647D2
:1006300048494A4C4D4E4F50515354555658595AAB
:100640005B5D5E5F616264656668696B6C6D6F704F
:1006500072737577787A7B7D7E8082838587888ABE
:100660008C8E8F91939596989A9C9EA0A2A3A5A7F5
:10067000A9ABADAFB1B3B5B7BABCBEC0C2C4C6C9F1
:10068000CBCDCFD1D4D6D8DBDDDFE2E4E7E9EBEEAA
:10069000F0F3F5F8FAFDFFFFAA7F55402223252647
:1006A00028292A2C2D2F3032333536383A3B3D3E1F
:1006B0004042434547494A4C4E5051535557595A69
:1006C0005C5E6062646668696B6D6F717375777983
:1006D0007B7D7F81838587898A8C8E909294969882
:1006E0009A9C9E9FA1A3A5A7A8AAACAEAFB1B3B494
:1006F000B6B8B9BBBCBEBFC1C2C3C5C6C7C9CACBE9
:10070000CCCDCED0D1D2D2D3D4D5D6D7D7D8D9D9B3
:10071000DADADBDBDBDCDCDCDCDCDDDDDDDDDCDC1C
:10072000DCDCDCDBDBDBDADAD9D9D8D7D7D6D5D439
:10073000D3D2D2D1D0CECDCCCBCAC9C7C6C5C3C205
:10074000C1BFBEBCBBB9B8B6B4B3B1AFAEACAAA85A
:10075000A7A5A3A19F9E9C9A98969492908E8C8A0E
:1007600089878583817F7D7B79777573716F6D6BE9
:100770006968666462605E5C5A5957555351504EC1
:100780004C4A4947454342403E3D3B3A3836353373
:1007900032302F2D2C2A29282625232211241FBE52
:1007A000CFEFDAE0DEBFCDBF11E0A0E0B1E0E8EAD4
:1007B000FAE502C005900D92AA3EB107D9F723E0F1
:1007C000AAEEB1E001C01D92A03DB207E1F70E9480
:1007D00023090C94522D0C940000A5E2B0E0E3EF45
:1007E000F3E00C948D2AFC01808191812381348176
:1007F000232B31F09F3F31F491E08F3F19F403C078
:1008000091E001C090E090FD1AC57F0185E0DE0116
:10081000919601900D928A95E1F7D70112962C914D
:1008200089A19AA1222349F00E946E27182F682FD0
:1008300089A19AA10E94DE2703C00E94AA27182F2F
:1008400069A17AA1812F0E946F0E8C01F70182812C
:100850008823E1F08091990390919A030097B1F079
:100860008017910799F0FEE08F9FC0011124FC01D1
:10087000E55EFE4F2081246020838A5E9E4FDC016E
:100880000D931C930E94ED26109298039091F00214
:10089000F7018281992309F44DC0811182C2E09150
:1008A000EC01E330A0F481E08E0F8093EC01F0E0E6
:1008B000EE0FFF1FE95DFD4FD7018D919C91918354
:1008C000808382E08983CE0101960E94BC1EBFEF27
:1008D000E3EDF0E3B150E040F040E1F700C000008C
:1008E0008091EC01833009F05CC21092EC01EDE2E2
:1008F000F2E0A7E2B2E083E392E0318111962C911D
:10090000119732132EC030812C9132132AC03296A7
:1009100012968E179F0789F784E0898381E0809380
:10092000F1028EEF8A831092F002CE0101960E94AE
:10093000BC1E37C29091F1029923C1F0882311F0B7
:1009400086E001C087E08983D7018C918A83119664
:100950008C918B838EEF8C83CE0101960E94BC1EFE
:1009600005C083E089831092F102DBCFF701828119
:10097000033BFDE51F07D1F5882309F4ADC0909135
:10098000EF0181E0890F8770987F853020F4892BF3
:100990008093EF0102C09093EF018091EF01877087
:1009A000BFEF8B9FC00111249595879595958795ED
:1009B0009927909389008093880090938B0080936F
:1009C0008A0090938D0080938C004091EF015091AC
:1009D000F0016091F1017091F2018FE090E00E94CE
:1009E0005F2B809102020E94831776C0053BEDE5E4
:1009F0001E0729F0063BFDE51F0729F019C08823D3
:100A000009F4CFC13EC1882309F4CBC1809193037F
:100A100081608093930386950E94B22281E00E94B8
:100A2000B22221E040E86FEF86E50E948B20B9C139
:100A3000980137552F3F310511F008F04DC058018E
:100A4000BB242EE0029FF0011124DF01AA5EBE4FFD
:100A50006D01E55EFE4F908180FB90F99083F70178
:100A60008281882309F497C10E943D269093250234
:100A700080932402D60112968C9112978F5F129662
:100A80008C931297909198038091C202892B1396B0
:100A90008C9313978091AC0214968C9314971696AE
:100AA000ED91FC911797309731F01C966D917C91E8
:100AB0001D97C60109958EE08A9DF0018B9DF00D72
:100AC0001124E55EFE4F808181FF62C190E080E0ED
:100AD0009093990380939A03F70182818111E9C071
:100AE0008091C20282720D3CFCE51F0709F4C2C06E
:100AF00008F045C0073C3CE5130709F4A7C0D8F44B
:100B0000043CACE51A0709F497C030F4033CECE56B
:100B10001E0709F46DC058C1053CFCE51F0709F428
:100B200090C0063C2CE5120709F04EC148E351E2A3
:100B300062E471E2A3C00A3C3CE5130709F490C0EB
:100B400078F4083CACE51A0709F485C0093CBCE51B
:100B50001B0709F039C14BE251E26EE171E28EC030
:100B60000B3CECE51E0709F480C00C3CFCE51F07BC
:100B700009F02AC142EB5FE164EC7FE17FC0023DF6
:100B80002CE5120709F485C0A0F40F3C8CE518078A
:100B900009F479C008F475C0003DACE51A0709F402
:100BA00075C0013DBCE51B0709F00EC16EE089E090
:100BB0007DC0053DECE51E0709F471C060F4033DFE
:100BC0002CE5120709F468C0043D3CE5130709F061
:100BD000FBC088E168C0063D8CE5180709F462C0D7
:100BE0000F359DE5190709F0EFC06AE285E25EC0A6
:100BF0008091930380FF1BC08E7F8093930360914D
:100C000093037091940380919503909196030E94B1
:100C10009F1F10920803AFEFB0E7E2E0A150B04091
:100C2000E040E1F700C000000E94E81EBAC0816009
:100C300080939303869537C046EB52E260EC72E2F4
:100C40001DC040EC52E266EB72E218C042E451E291
:100C500068E371E213C04EE151E26BE271E20EC053
:100C600044E051E261E171E209C041E151E264E036
:100C700071E204C044EC5FE162EB7FE10E944B272C
:100C800090C081E010C065E082E010C068E086E0BE
:100C90000DC064E18FE00AC067E185E107C062E250
:100CA00089E104C083E20E94B2227BC00E943827FF
:100CB00078C00C35FDE51F0709F464C060F4011528
:100CC0003CE51307A9F00F3D8CE5180709F07CC03F
:100CD0000E9424104CC00E359DE5190709F44AC046
:100CE00008F452C0093ABDE51B0709F440C06CC0C6
:100CF0001092C2020E949228EFEFF4E32CE0E15040
:100D0000F0402040E1F700C00000F89481E08093BB
:100D1000E00080E28093D8001092C9008FE19EE449
:100D20000197F1F700C000001DBA109268001CBCCA
:100D300010BE1FBA10927A0010926E0010926F00CF
:100D400010927100109272001092C9001092BC00B3
:100D500014B817B81AB81DB810BA1092BC0015B85C
:100D600018B81BB81EB811BA0C94003F1AC00E94E4
:100D70006B1717C08091A70382FB882780F991E049
:100D8000892703C081E001C080E00E9420111CC0BF
:100D9000902F812F9DCE91FF9FCECD010E94D32613
:100DA0009BCE80918B02877009F449C2D7011296BD
:100DB0008C91882309F443C28091A70382FF3FC22C
:100DC00082E00E9403113BC2D70112968C911297C8
:100DD0000D911C91882349F0C8010E946E27D82EDE
:100DE000682FC8010E94DE2704C0C8010E94AA27FC
:100DF000D82EB8018D2D0E946F0E0E94880E8C0196
:100E0000982EF701D280C580C2949FE0C9228091BC
:100E10008B028770B9F0DD20A9F0812F807F8034AC
:100E200021F080E2800F883068F08091A70382FF74
:100E300009C082E00E94031180918B028770BB245D
:100E4000B3948111B12CA12EA2948FE0A8228A2DF7
:100E500090E08C30910508F0C4C1FC01EA5AFF4FC4
:100E60000C94022C812F807F1F70882311F0129523
:100E7000107FDD20B9F0112309F4A1C180E2800FB9
:100E8000883010F0911006C08091C202182B109388
:100E9000C20205C080919803182B109398030E94FA
:100EA000AE108DC1802F0E94C828112309F499C16A
:100EB000005E812F083060F1992051F10E94A0104E
:100EC00029C0812F807F1F70803211F01295107F12
:100ED000992021F0F1E09F16D9F147C08091A70336
:100EE00082FD1BC0DD2069F0112339F08091C20220
:100EF000182B1093C2020E94AE1080E00E94FD28C1
:100F000070C180E00E94C828112309F46AC1812FB2
:100F10000E94A7100E94AE1064C1DD2081F0809174
:100F2000AC02CC2051F021E0C21207C0182B1817D8
:100F300009F457C11093AC0254C1812B10C0CC20CE
:100F400021F031E0C31609F44CC10E949A101FC071
:100F5000DD2041F081E08C1508F443C1812F0E940F
:100F6000BE283FC1C1103DC112C0DD2019F0CC2008
:100F7000A9F325C1CC2059F0093309F02FC19FEF07
:100F8000A7EEB3E09150A040B040E1F725C1812F1A
:100F90000E94B72826C1812F86958695837019F007
:100FA000813059F01EC1DD2019F0C801937002C0D4
:100FB00080E090E00E94B0261AC1DD2019F0C8013F
:100FC000937002C080E090E00E949A2610C1802FAA
:100FD000DD2019F00E94062202C00E944C210E94CE
:100FE000CB2205C1812F8370A9F5D110FEC0402FFF
:100FF000429546954770440F440F802F8F7090E0C4
:101000009C01042E01C0220F0A94EAF704FF08C0D5
:101010008FE090E001C0880F4A95EAF7809501C003
:1010200080E0169516951370123069F088F490914F
:10103000AD02113019F0822B892302C0922B892B2B
:101040000E945628D2C0822B9091AD028927F8CFFA
:10105000822BF6CFDD2019F0812F817001C086959B
:10106000882309F4C2C0402F429546954770440F2B
:10107000440F802F8F7090E09C01042E01C0220F3E
:101080000A94EAF704FF08C08FE090E001C0880FDF
:101090004A95EAF7809501C080E016951695137081
:1010A000123059F078F490910202113019F0822B2D
:1010B000892309C0922B892B06C0822B90910202B2
:1010C000892701C0822B0E9413288FC01F70DD204A
:1010D00039F0812F0E944A28802F0E94BE2885C0A7
:1010E000802F0E94B728812F0E943D287EC0802F2C
:1010F000E2EF9E1669F1E91538F0F0EF9F1659F00E
:1011000021EF921601F157C033EF931641F194EF9E
:101110009916A9F050C0DD2069F0C11062C01F719E
:1011200081E090E001C0880F1A95EAF790910202E1
:1011300089271FC0A1E0AC1508F453C0F0CF8091FF
:10114000A70382FD19C0DD2029F0812F8F7126C0F1
:10115000DD20D9F3812F8F710E943D2842C0DD2010
:1011600039F01F7181E001C0880F1A95EAF701C0BC
:1011700080E00E94132835C0DD2099F01F71812F77
:101180000E944A288091A70382FF07C0B8E01B9FF6
:10119000C0011124836080938B02812F0E944A2812
:1011A00020C081E00E940311E1E0EC15D0F482E060
:1011B0000E94031116C0DD2021F0CC2031F2802FD7
:1011C0009DCECC2039F2893349F4FFEF27EE33E08E
:1011D000F15020403040E1F700C00000802F0E9415
:1011E000C82888EF8A0D843010F40E94C626BB20E0
:1011F000B1F080918B0280FD12C0D70112961C9233
:101200008595859585950E944A28C7010E94ED0322
:1012100080918B028595859585950E943D2885E076
:10122000F701DE01119601900D928A95E1F709818F
:101230001A81C8010E94AA27B8010E946F0EA596C4
:10124000EBE00C94A92AACE5B0E0E9E2F9E00C94FB
:10125000892A85B7806885BF85B7806885BF84B7D0
:10126000877F84BF0FB6F894A8958091600088614D
:1012700080936000109260000FBE90E080E80FB68F
:10128000F89480936100909361000FBE8AE29EE023
:101290009093EB018093EA010E940E1D0E942D1D88
:1012A0008091E20084608093E20078948091F30260
:1012B0008823A1F01091E9001F709091EC00892F14
:1012C000817090FD80E8182B1092E9008091E80071
:1012D00083FD0E94F8191F701093E90082E084BD1D
:1012E00093E095BD9AEF97BD80936E000E94AD1775
:1012F00090E090935F0180935E010E94E8180E9445
:101300002E19E3EFF1E0A7E0B2E011921D9222E086
:10131000E130F207D1F78EE090E00E94172C809325
:10132000ED019093EE01FC010E961192E817F9077A
:10133000E1F789EA8093800089E080938100249816
:101340002C983F988AB18F7C8AB96E98479A8BB156
:1013500080638BB9769A8FE090E00E94312B609386
:10136000EF017093F0018093F1019093F2016770A7
:101370003FEF639FB001112475956795759567954B
:101380007727709389006093880070938B00609337
:101390008A0070938D0060938C000E94241880E076
:1013A00090E00E94372B883E9E4F11F00E9424103F
:1013B00082E090E00E94292B8093150284E090E067
:1013C0000E94292B182F82E290E00E94292B212FC6
:1013D00030E0382B3093A7032093A60383E090E0FE
:1013E0000E94292B0E945628809102020E94831796
:1013F00080910102811136C080E090E00E94372B7D
:10140000883E9E4F21F00E9424100E94D61F88E043
:1014100090E00E94312B6093930370939403809328
:101420009503909396036E7F71F40E94D61F88E017
:1014300090E00E94312B6093930370939403809308
:101440009503909396030E948C1F1092080380913D
:10145000930380FF04C060E086950E94772281E0BC
:1014600080930102809102020E9483178AE091E03A
:1014700090939E0380939D0388E1E82EF12C95E1E3
:10148000C92E92E0D92E8091F302853009F086C0F2
:1014900000E4B02EAA24A39400E112E18091F302AB
:1014A000853009F064C08091F302843009F43DC0B6
:1014B0001092080380910402811116C0A0920402C8
:1014C00080919303982F9170909303028E7F809365
:1014D0009303FFEF20E732E0F15020403040E1F786
:1014E00000C000000E94E81E1092A1030FB6F894FD
:1014F000A895E09260000FBEB092600083B7817F34
:10150000846083BF83B7816083BF7894889583B7F5
:101510008E7F83BF0FB6F894A89580916000886194
:1015200080936000109260000FBE8091E6028823D5
:1015300009F4B4CF0E94AD1790E090935F018093BF
:101540005E010E94E8180E942E19E7E0F2E0119275
:1015500042E0E531F407D9F70E943613E7E0F2E004
:101560008191811156C3CE16DF06D1F797CF109225
:10157000C2020E9492280E94C62610920402809104
:101580000302882349F08091930381608093930341
:1015900060E086950E9477220E9461220E943613A5
:1015A00016E1A12E12E0B12EA7E0B2E0F501919173
:1015B0008D91892792E0E432F90719F08823B9F375
:1015C00032C0811130C00E943D268C0180910502FD
:1015D000909106020817190709F473C08FEF6496FB
:1015E0008FAF649765968FAF659766961FAE6697C7
:1015F0000E943D268160782F68969FAF8EAF6897D6
:1016000064964FAD649765965FAD659766966FADCE
:10161000669768968FAD68970E94B8161093060279
:10162000009305024EC0B7E08B2EB2E09B2E10E077
:10163000F40151904F01F5016080652481F100E0D3
:1016400077247394862D872121F169960FAF6997CE
:101650006A961FAF6A9791E0852D872109F490E083
:101660006B969FAF6B970E943D268160782F6D9699
:101670009FAF8EAF6D9769964FAD69976A965FADD4
:101680006A976B966FAD6B976D968FAD6D970E9455
:10169000B8160F5F770C0630A9F6F50150821F5F70
:1016A000FFEFAF1ABF0A1E3009F0C2CF8FB7F89410
:1016B0004091A2035091A3036091A4037091A503EC
:1016C0008FBF8091990390919A03892BC9F08091E3
:1016D0002402909125020E942E26893C910580F0DB
:1016E000809199032EE0829FC0011124FC01E55EE8
:1016F000FE4F208122FD04C08A5E9E4F0E94ED268F
:1017000080910803882309F4A5C080910703E09124
:101710009303E695E81BE0930303823059F4F0E06D
:10172000EB5FFE4FE4910E2F10E0A9ECAA2EA5E28C
:10173000BA2E6BC0863059F4F0E0EE5FFE4FE491B4
:101740000E2F10E0F9EBAF2EF5E2BF2E5EC0893010
:1017500061F4E695F0E0E150FF4FE4910E2F10E0C8
:10176000E5E5AE2EE5E2BE2E50C08F3061F4E69581
:10177000F0E0E450FF4FE4910E2F10E07FEEA72E33
:1017800074E2B72E42C0853159F4F0E0E750FF4FC4
:10179000E4910E2F10E06FE9A62E64E2B62E35C05C
:1017A0008831F9F0833249F4E7EFF0E005911491C4
:1017B0005FE7A52E55E2B52E28C08432C9F08532E8
:1017C000F1F48E2F63E00E94D42BE92FF0E0EC506F
:1017D000FF4FE4910E2F10E046E5A42E43E2B42E15
:1017E00014C008E210E034E2A32E34E2B32E0DC0A0
:1017F00004EF11E02CEEA22E23E2B22E06C000ED83
:1018000017E095EFA92E92E2B92E80910403882368
:1018100061F0109204030E943D269093020380938E
:10182000010310920603109205030E943D26E091E9
:101830000103F09102038E1B9F0B8F3F9F4750F4D3
:101840000E0F1F1F109302030093010381E093E02A
:10185000F501099585E0EBEFF2E0DE0111960190CC
:101860000D928A95E1F71092FC021092FD021092FF
:10187000FE021092FF021A81111104C08B8188238D
:1018800009F452C08091F9029091FA020E942E262A
:101890009C019091F502992309F4D3C125313105BA
:1018A00008F442C09F3F19F09F5F9093F502112307
:1018B00061F00E94E321111614F491E001C09FEF42
:1018C000899F802D11248093FC021B81112361F0DC
:1018D0000E94E321111614F491E001C09FEF899F4B
:1018E000802D11248093FD023091FC023323E1F01E
:1018F0002091FD022223C1F045EB3403C0011124E5
:10190000992319F09093FC0203C081E08093FC02BC
:1019100035EB2303C0011124992319F09093FD02A4
:1019200003C081E08093FD021C81111104C08D81F0
:10193000882309F452C08091F7029091F8020E9426
:101940002E269C019091F402992309F47EC1253141
:10195000310508F442C09F3F19F09F5F9093F40255
:10196000112361F00E94C321111614F491E001C00B
:101970009FEF899F802D11248093FE021D811123EA
:1019800061F00E94C321111614F491E001C09FEF91
:10199000899F802D11248093FF023091FE02332312
:1019A000E1F02091FF022223C1F045EB3403C00196
:1019B0001124992319F09093FE0203C081E08093D3
:1019C000FE0235EB2303C0011124992319F09093F3
:1019D000FF0203C081E08093FF0245E050E0BE01BA
:1019E0006F5F7F4F8BEF92E00E94452D892BA9F40A
:1019F0008091FC0281110FC08091FD0281110BC00A
:101A00008091FE02811107C081E09091FF02911147
:101A100003C080E001C081E080FD0E94CB2285E010
:101A2000FE013196ABEFB2E001900D928A95E1F79D
:101A30000E94C62690912602891769F0809326029B
:101A40008FB7F8944091A2035091A3036091A4032F
:101A50007091A5038FBF8091F302843009F013CDFC
:101A60008093E9008091E80082FF0DCD8091E8002D
:101A700085FF22C00E945F1E81111CC000E210E0A1
:101A80005E0141E2A40EB11C08C08091F100F50195
:101A900081935F010150110969F08091E80085FD93
:101AA000F4CF8091E8008B778093E8000E945F1E5E
:101AB000882399F391E001C090E08091E8008B7752
:101AC0008093E800992309F4DECC89A18230B9F033
:101AD00060F48823C9F1813009F0D5CC0DE212E021
:101AE00083E3A82E82E0B82E3CC0853009F488C07C
:101AF000863009F485C0843009F0C5CC75C08BA14F
:101B00009AA190932702809328028DA19CA1909383
:101B1000290280932A028FA19EA190932B02809389
:101B20002C0242E150E063E270E0CE018F5B9F4FF8
:101B30000E94192B84E0898381E08093F1028EEF6B
:101B40008A831092F00260C019828CE0EEE6F1E028
:101B5000DE01129601900D928A95E1F78EEF8D8746
:101B600053C00E941827F801819391938F01AE16FC
:101B7000BF06B9F781E0898390912D029A839091F5
:101B80002E029B8390912F029C83909130029D8323
:101B9000909131029E83909132029F839EEF9887AD
:101BA0008093F002CE0101960E94BC1E42E150E0FB
:101BB00063E270E0CE0101960E94192BFE0131967E
:101BC00082E183301CF09189928B01C0128A81508E
:101BD00031978F3FB1F742E150E063E270E0CE0110
:101BE00001960E943D2B4FCC8091F102882309F48D
:101BF0004ACC80E00E9413288AA10E944A2843CC44
:101C00008FEF898384E08A83CE0101960E94BC1EF7
:101C10003ACC09BD19BD09B400FEFDCF8091D800B2
:101C20008F7D8093D8008091E00082608093E000F7
:101C30008091E00081FDFCCF1092C2020E949228A8
:101C40002DCC232B09F030CE6FCE2139314008F056
:101C500084CEC3CE80E008959091A60392FF0DC07C
:101C6000282F2871283019F4877F846006C0282F18
:101C70002471243011F48B7F886093FF0DC0282FCE
:101C80002871283119F4877E846106C0282F2471B9
:101C9000243111F48B7E88612091A70320FF0DC0B1
:101CA000382F3871383019F4877F816006C0382F9B
:101CB0003171313011F48E7F886021FF0DC0282FE3
:101CC0002871283119F4877E816106C0282F21717F
:101CD000213111F48E7E886194FD877E08957E30D7
:101CE000A0F4663090F494E5899FF001112486E019
:101CF000789FE00DF11D1124E60FF11DEE0FFF1F7F
:101D0000E75FFE4F85919491089580E090E00895FB
:101D1000CF93DF938238910569F1B0F48133910557
:101D200009F477C048F48932910509F469C08A3210
:101D3000910509F473C092C08533910509F45BC025
:101D400089339105B9F08AC0833E910591F138F449
:101D5000803E9105D1F0823E910531F17FC0863EF3
:101D60009105D9F1873E9105E9F1843E910509F08D
:101D700075C028C02091A60320FD5BC021FD59C07D
:101D80002091A70323FD61C069C08091A60380FD57
:101D90004AC08091A70380FF4CC08091A60384FDB8
:101DA0004EC183EE90E04DC18091A60382FF3EC0FC
:101DB000F4CF8091A60382FD39C08091A70380FDF6
:101DC00038C0EBCF8091A70381FF39C08091A60373
:101DD00084FD35C187EE90E034C18091A60383FF76
:101DE0002BC0F4CF8091A60383FD26C08091A7036A
:101DF00081FD25C0EBCF8091A60385FD26C022C0C2
:101E00008091A60385FD1EC08091A70383FF1DC09E
:101E10000AC08091A60386FD1BC01DC08091A60349
:101E200086FD19C015C089E390E00BC182EE90E0F9
:101E300008C180EE90E005C186EE90E002C184EE1C
:101E400090E0FFC085E390E0FCC089E290E0F9C03B
:101E50008AE290E0F6C081E390E0F3C0811531E5BD
:101E6000930708F061C0811520E59207B0F09C014E
:101E70002370332741E050E002C0440F551F2A95DC
:101E8000E2F7282F2695269580E2289F90011124BD
:101E9000CA01822B932B9D68D4C0883E910568F5BA
:101EA000803E910508F0CDC0883A9105B8F4853A96
:101EB000910548F0855AE82FF0E0E658FE4F808102
:101EC00090E09064BEC08130910509F4B5C008F47B
:101ED000B6C08430910508F4B2C0B3C08F3B910501
:101EE00008F0ADC0885AE82FF0E0EE0FFF1FE3586E
:101EF000FE4F808191819464A4C0811530E29307E4
:101F000058F4811521E0920708F09BC08D3E9105A1
:101F100008F495C0906595C0811530E4930708F4E6
:101F20008EC09F70906A8DC0811525E5920708F0DC
:101F300042C0811534E5930728F0982F8827846FD5
:101F4000906A7FC0811523E59207B0F09C01237051
:101F5000332741E050E002C0440F551F2A95E2F7B5
:101F6000282F2695269580E2289F90011124CA01EA
:101F7000822B932B9A6865C0811532E5930728F46C
:101F8000982F8827816F906A5CC09C01237033274B
:101F900041E050E002C0440F551F2A95E2F7282F78
:101FA0002695269580E2289F90011124CA01822B54
:101FB000932B9C6846C0EC01C11589E5D807B0F4A5
:101FC000C11528E5D20728F09C2F8827806F906ADA
:101FD00038C0C11536E5D30790F58C2F0E942C0E22
:101FE0008F7190E0982F882790622BC0C1158AE5E9
:101FF000D80790F48C2F8F700E942C0E94E0D69509
:10200000C7959A95E1F7CF70D0E0DC2FCC27D06947
:102010009E01282BC90115C0CE0190568115904212
:1020200070F48D2F8F710E942C0E282F2F71CE01EE
:1020300099279062922B05C081E090E002C080E079
:1020400090E0DF91CF91089568EE7EEF80E090E020
:102050000E946B2B60E082E090E00E944D2B60E0DC
:1020600083E090E00E944D2B1092AD0260E084E08E
:1020700090E00E944D2B64E082E290E00E944D2BA4
:1020800060E085E090E00E944D2B60E086E090E00B
:102090000E944D2B6FEF87E090E00E944D2B40E0B7
:1020A00050E0BA0188E090E00E945F2B60E08DE094
:1020B00090E00E944D2B40E050E0BA0188E190E0B2
:1020C0000E945F2B60E087E190E00E944D2B40E092
:1020D00050E0BA018CE190E00E945F2B60E070E07C
:1020E00080E290E00E946B2B40E050E0BA0188E172
:1020F00090E00E945F2B1092EF011092F00110927D
:10210000F1011092F20184E08093EF014091EF0120
:102110005091F0016091F1017091F2018FE090E037
:102120000E945F2B40E050E0BA0183E190E00E9402
:102130005F2B08958091AC0281111092AC0208953A
:1021400080959091980389238093980308958095B2
:102150009091C20289238093C20208959091C20295
:1021600080919803982B909333028091AC0288233E
:10217000D9F0892B8093330280915C01882331F060
:102180008091A60387FF02C08EE101C086E0E5E3EF
:10219000F2E090E0815028F021912223D9F39F5F53
:1021A000F9CF91110E949A1040E250E06CE872E081
:1021B00083E392E00E94452D892B21F180E2E3E345
:1021C000F2E0ACE8B2E001900D928A95E1F7E0917F
:1021D0009D03F0919E033097A9F080915C018823C4
:1021E00059F08091A60387FF07C080913302809346
:1021F000340286E0809333020280F381E02D83E392
:1022000092E00995089520918B0280958223809316
:102210008B02982F977099F430E0482F082E000C0D
:10222000550B2417350759F09091A70392FF07C06B
:102230008595859585950E943D2810928B0208957D
:10224000CF93C091A703C2FB992790F9981791F0FB
:1022500080FBC2F9C093A7036091A60384E090E0DD
:102260000E944D2B6C2F82E290E00E944D2B82E069
:102270000E940311CF91089580918A029091590292
:10228000891719F08F5F8770FBCF08950F931F9305
:10229000CF93DF938091580282958F7009F05AC0D6
:1022A00080915502882309F455C080918A021091CB
:1022B00059026091530270915402C0915602D0911C
:1022C000570291E06F3F09F090E0292F06E0811757
:1022D00009F440C0209721F07F3F21F030E003C097
:1022E00031E001C0322F90E030FD31C0089FF00195
:1022F000099FF00D1124DF01A65ABD4F11963C91A4
:102300001197371324C03C91361321C012963C918B
:10231000129731111CC013964D915C9114974C1B70
:102320005D0B483C510598F4809158028F70806194
:1023300080935802E15AFD4F80818F7080618083C5
:1023400083E592E00E94ED030E943C1103C00196D8
:102350008770BDCFDF91CF911F910F910895A1E1BB
:10236000B0E0E5EBF1E10C948D2A8C0185E0F801F9
:10237000DE011D9601900D928A95E1F7F801E28049
:10238000909153026091540240915602509157022D
:102390004115510531F06F3F31F481E09F3F19F451
:1023A00003C081E001C080E0F82FF1709F2E80FD16
:1023B0001BC1F80130812181C380D48083E5A82E20
:1023C00082E0B82EF0905502F601E41BF50BFF20D9
:1023D00009F4C7C080915802E83CF10508F092C0AA
:1023E000482F407F09F051C0621311C093130FC0F2
:1023F000FE2CE1100CC08F70806180935802C501E3
:102400000E94ED0380915802F80185832AC1C1140E
:10241000D10431F02F3F31F481E03F3F19F403C084
:1024200081E001C080E080FD03C081E08E2502C014
:1024300080E090E0F82FF170FF2E80FF1CC08091AB
:102440008A024091590256E0841709F4E8C090E0EE
:10245000589FF001599FF00D1124E65AFD4F6181FC
:10246000261306C06081631303C06281E61203C0B5
:1024700001968770E9CFFE2CEE2009F4F2C080911E
:10248000580281608093580249C0621306C09313BA
:1024900004C0E11002C0F80186C0C8010E945B2898
:1024A000882351F1EE2041F120915802822F82952C
:1024B0008F7090E0029774F08091530290915402D3
:1024C00098878F831986DB86CA862C87CE0107966C
:1024D0000E94ED0386E0F801A3E5B2E001900D92C1
:1024E0008A95E1F70E9446110AC06217C9F0C80137
:1024F0000E945B2881111EC0C8010E94ED03FF24C9
:10250000F394AFC0482F407F81F783E592E00E94AB
:10251000ED0386E0F50111928A95E9F7F12CA1C04F
:102520009313E5CFE110E3CFF8018583C8010E9442
:10253000ED0354C0EE2001F320915802822F8295C2
:102540008F7090E0029734F2809153029091540280
:102550009A8389831B82DD82CC822E83CE010196F1
:10256000B7CFE83CF105D0F5FE2CEE2029F262133E
:1025700027C0931325C02091580220FD18C0822F38
:1025800082958F70482F50E04115510581F0F80178
:1025900025834F30510541F08F5F982F9295907FA2
:1025A000822F8F70892B8583C8010E94ED0386E0FE
:1025B000F801A3E5B2E001900D928A95E1F751C0D0
:1025C000C8010E945B28811185CF809158028160EB
:1025D00080935802C8010E94ED0343C086E0F501D4
:1025E00011928A95E9F73DC0EE2009F485CFC80124
:1025F0000E945B28F82E882309F47ECF86E0F8013C
:10260000A3E5B2E001900D928A95E1F78091530223
:10261000909154020E949D270E94461122C03D873E
:102620002E878D859E850E949D27292F22952F70AC
:10263000223028F49F7039F0811105C00BC024307E
:1026400028F49F7049F4805E883020F0C8010E9411
:10265000ED039F2CF92C05C0F8019581907F99F727
:10266000F9CF8F2D6196EBE00C94A92AA0E0B0E0A1
:10267000ECE3F3E10C94902A80915E0190915F016C
:10268000892BB9F08091AE028F5F8093AE028111E9
:1026900010C00E94AD1790E090935F0180935E019F
:1026A000892B39F40E94241881E080935D010E94F7
:1026B000E81E03EF11E07801D0E0C0E087E0C82E0B
:1026C000CC0E8C2F0E9494188C2D0E9494188C2F65
:1026D0000E94F7188F73F7019081891721F080838A
:1026E000DD24D39401C0D12C8C2D0E94F7188F7358
:1026F000F7019781891719F0878381E001C080E095
:10270000D82ADD290E94E818CF5FFFEFEF1AFF0AF1
:10271000C730A1F61092B302C091B202CC2309F4E3
:10272000C4C00E943D262091B0023091B102AC019C
:10273000421B530B9A019093B1028093B0024F3F1A
:10274000510509F018F4452B19F102C02FEF30E0C4
:102750001092B2021092AF02E091ED01F091EE0101
:10276000AF01425F5F4F90E030E08081882341F00D
:10277000281718F010829C2F03C0821B80833C2FE7
:102780003196E417F50789F73093B2029093AF02C0
:10279000DD2309F47BC0E091ED01F091EE01809121
:1027A000B3029091B202A7E0B2E0AF01425F5F4F87
:1027B0006EE1E80128813C91321779F030813111C6
:1027C0000CC060832C9398819227282F30E0292B0E
:1027D00081E0232B09F480E091E0319611960F5FA0
:1027E0001F4FE417F50729F78093B3029093B202C5
:1027F000C091B3022091F0028091B5029091B6028F
:102800002223C9F1892B31F425982D9826982E98EA
:1028100027982F988091B5029091B6029170892BDC
:1028200079F48091B402882319F026982E9802C07A
:10283000269A2E9A9091B40281E089278093B4025F
:102840008091B5029091B6028130984750F0109275
:10285000F002809102020E9483171092B602109239
:10286000B5028091B5029091B60201969093B6029E
:102870008093B5021EC0892BE1F01092B60210922F
:10288000B502809102020E94831713C081E09091EB
:10289000AF02992309F4ACCF81117DCF0E943D2670
:1028A0009093B1028093B00276CFD111F7CF80E040
:1028B000EECF8C2FCDB7DEB7E8E00C94AC2A9C01AC
:1028C0003A9521153F4130F5BC0166277270AC0185
:1028D000442754709C012227387094FF0FC090FF4A
:1028E00002C080E101C080E0672B09F08062452BC7
:1028F00009F08064232B79F080680895892F817016
:10290000672B09F08260452B09F08460232B19F0B6
:102910008860089580E00895FC018281813039F457
:10292000958192FD12C090FF10C082E00895823020
:1029300039F4858182FD06C080FD06C083E00895DC
:1029400086E0089585E0089584E00895CF93DF93AD
:10295000EC010E94C828CE01805E9109089710F012
:10296000209731F4CE010E945F140E94B72805C061
:10297000CE010E945F140E94A628DF91CF91089596
:102980008FE39CE90197F1F700C000008091C0023D
:10299000823049F018F4813049F00CC0833031F0B6
:1029A000853021F007C08EE290E002C08EE292E016
:1029B0000E94A6141092C00208958FE39CE901972B
:1029C000F1F700C000008091BE02823049F018F497
:1029D000813049F00CC0833031F0853021F007C0E0
:1029E0008DE292E002C08DE290E00E94A614109267
:1029F000BE0208958FE39CE90197F1F700C0000043
:102A00008091BC02833061F018F4813049F00CC031
:102A1000843019F0853021F007C08DE492E002C0C7
:102A20008FE490E00E94A6141092BC0208958FE3F8
:102A30009CE90197F1F700C000008091BA02833051
:102A400061F018F4813049F00CC0843019F0853001
:102A500021F007C08AE492E002C080E590E00E9485
:102A6000A6141092BA0208958FE39CE90197F1F73A
:102A700000C000008091B802823049F018F4813023
:102A800049F00CC0833031F0853021F007C085E378
:102A900090E002C085E392E00E94A6141092B80272
:102AA0000895CF93DF93EC01805E9109089710F0B1
:102AB000209731F4CE010E945F140E94BE2805C009
:102AC000CE010E945F140E94AD288C2F0E94FD2829
:102AD000DF91CF9108950F931F93CF93DF938C01D4
:102AE000C99719F0C0E0D0E002C0C0E5D0E0C8014D
:102AF0000E945115209741F08FE99FE00197F1F76F
:102B000000C000002197F6CFC8010E94A614DF91F3
:102B1000CF911F910F910895CF93DF93EC018A819C
:102B2000833061F48EE292E00E946B158EE292E0B7
:102B30000E946B158EE292E00E946B158A818430B0
:102B400020F08EE292E00E946B15DF91CF91089504
:102B5000CF93DF93EC018A81833061F48DE290E0C2
:102B60000E946B158DE290E00E946B158DE290E063
:102B70000E946B158A81843020F08DE290E00E94E3
:102B80006B15DF91CF910895CF93DF93EC018A818C
:102B9000833061F48FE490E00E946B158FE490E045
:102BA0000E946B158FE490E00E946B158A8184303F
:102BB00020F08FE490E00E946B15DF91CF91089593
:102BC000CF93DF93EC018A81833061F480E590E05C
:102BD0000E946B1580E590E00E946B1580E590E007
:102BE0000E946B158A81843020F080E590E00E947D
:102BF0006B15DF91CF910895CF93DF93EC018A811C
:102C0000833061F485E392E00E946B1585E392E0E6
:102C10000E946B1585E392E00E946B158A818430D7
:102C200020F085E392E00E946B15DF91CF9108952B
:102C30000E948C148093C002823049F018F48130D5
:102C400091F00895833031F0853049F008958EE297
:102C500090E00BC08EE292E00E94511504C08EE21B
:102C600092E00E946B158EE292E00E945115089549
:102C70000E948C148093BE02823049F018F4813097
:102C800091F00895833031F0853049F008958DE258
:102C900092E00BC08DE290E00E94511504C08DE2DD
:102CA00090E00E946B158DE290E00E94511508950E
:102CB0000E948C148093BC02833049F018F4813058
:102CC00091F00895843041F0853049F008958FE403
:102CD00090E00E94511507C08DE492E006C08FE499
:102CE00090E00E946B158FE490E00E9451150895CA
:102CF0000E948C148093BA02833049F018F481301A
:102D000091F00895843041F0853049F0089580E5D0
:102D100090E00E94511507C08AE492E006C080E569
:102D200090E00E946B1580E590E00E945115089597
:102D30000E948C148093B802823049F018F48130DC
:102D400091F00895833031F0853049F0089585E39E
:102D500090E00BC085E392E00E94511504C085E32A
:102D600092E00E946B1585E392E00E945115089550
:102D7000A7E1B0E0EEEBF6E10C94952A4B8B5C8B6F
:102D80006D8B7E8B8F8B61111092980386E09E0174
:102D9000235F3F4FD901E82F1D92EA95E9F795E0AF
:102DA000FE017396D90101900D929A95E1F79C89E5
:102DB0004E895F897B897D879E876F87598B488B7A
:102DC000F901DE01179601900D928A95E1F7CE0187
:102DD00007960E94AF1181113EC086E0FE01379632
:102DE000DE01119601900D928A95E1F7FF81E88549
:102DF0006A857B856115710531F0EF3F31F481E023
:102E0000FF3F19F403C081E001C080E080FD23C0D2
:102E10002091590230E0C9010196877099274091AD
:102E20008A0250E08417950779F1F983EA837D835C
:102E30006C8396E0929FD001939FB00D1124A65A07
:102E4000BD4FFE01319601900D929A95E1F7809366
:102E500059020E943C1116E080918A029091590219
:102E6000891709F1189FC0011124865A9D4F0E94AD
:102E7000AF118823C1F080918A0290E0019687709B
:102E8000992780938A02E8CF1092C2020E9492286A
:102E90001092590210928A02E3E5F2E086E0DF0127
:102EA0001D928A95E9F76796E3E00C94B12A982F72
:102EB00092959F7019F0892F24E001C020E0982F8F
:102EC0009695969511F02E5F892F982F969509F07B
:102ED0002F5F822F08951092C2020E9492282FEF36
:102EE00084E39CE0215080409040E1F700C0000066
:102EF0009AE088E10FB6F894A895809360000FBE21
:102F000090936000FFCFCF93C82F0E945717569819
:102F10005E9825982D9826982E9827982F9890E0BF
:102F2000FC013197E730F105A8F4EE59FF4F0C94FE
:102F3000022C259A2D9A0EC0259A2D9A269A2E9A01
:102F400009C0259A2D9A04C0259A2D9A269A2E9A60
:102F5000279A2F9A8C2FCF91089580E290E090933A
:102F60005F0180935E018091000381110EC00E9479
:102F7000A22981E0809300032FEF83ED90E321509D
:102F800080409040E1F700C0000060E570E080E420
:102F90000E94A82990935F0180935E01892B09F01C
:102FA0004EC060E570E080E00E941B2A90935F01B4
:102FB00080935E01892B09F042C060E570E080E0FB
:102FC0000E941B2A90935F0180935E01892BB9F5C3
:102FD00060E570E08FE30E941B2A90935F0180936D
:102FE0005E01892B61F50E946E2A60E570E080E445
:102FF0000E94A82990935F0180935E01892BF9F4C8
:1030000060E570E08CE00E941B2A90935F01809342
:103010005E01892BA1F460E570E080E00E941B2A2C
:1030200090935F0180935E01892B49F460E570E025
:103030008FE30E941B2A90935F0180935E010E94A0
:103040006E2A80915E010895CF93DF9356985E9823
:1030500025982D9826982E9827982F98C8E8D0E084
:103060008FEF90E099838883AAE8B0E011969C9353
:103070008E93ECE8F0E091838083259A2D9A2FEFD0
:1030800080E792E0215080409040E1F700C00000CE
:10309000269A2E9A2FEF80E792E0215080409040B0
:1030A000E1F700C00000279A2F9A2FEF80E792E007
:1030B000215080409040E1F700C0000025982D98F5
:1030C0002FEF80E792E0215080409040E1F700C070
:1030D000000026982E982FEF80E792E02150804044
:1030E0009040E1F700C0000027982F988091EF01F1
:1030F00087702FEF829FC001112495958795959534
:10310000879599279983888311969C938E939183B1
:10311000808356985E9825982D9826982E98279803
:103120002F98DF91CF910895CF93E82F873080F5C6
:1031300080915E0190915F01892B09F047C0CE2FED
:1031400060E570E080E40E94A82990935F0180937D
:103150005E01892BD1F460E570E082E10E941B2AB8
:1031600090935F0180935E01892B79F481E090E078
:1031700001C0880FCA95EAF760E570E080950E946B
:103180001B2A90935F0180935E010E946E2A1EC0ED
:1031900090E0FC013797E730F105C0F4E759FF4FA5
:1031A0000C94022C209A289811C0219A29980EC0BC
:1031B000229A2A980BC0239A2B9808C0529A5A98A0
:1031C00005C0539A5B9802C03E9A4698CF910895E5
:1031D000209828982198299822982A9823982B9803
:1031E00052985A9853985B983E9846980895CF9372
:1031F000873040F580915E0190915F01892B59F5F0
:1032000060E570E081E40E94A82990935F018093BB
:103210005E01892B11F0C0E011C080E590E00E94B2
:103220004A2A97FF05C090935F0180935E01F3CF18
:10323000C82FC09510925F0110925E010E946E2A05
:103240008C2F0AC09FB18FB1807F86958695937031
:10325000892B809501C080E0CF9108958098889A4D
:103260008198899A84988C9A85988D9A86988E9A56
:1032700087988F9A08958091E80287FF11C0809106
:10328000E80082FD05C08091F3028111F8CF11C0E2
:103290008091E8008B770BC08091F302882349F07E
:1032A0008091E80080FFF8CF8091E8008E778093CE
:1032B000E8000895982F973068F59093E9009817E3
:1032C00039F07091EC002091ED005091F00003C0B6
:1032D000242F762F50E021FD02C09F5FECCF30916C
:1032E000EB003E7F3093EB003091ED003D7F30935B
:1032F000ED003091EB0031603093EB007093EC0007
:103300002093ED005093F0002091EE0027FDE5CFD3
:1033100080E008958F708093E90081E00895209106
:10332000EE023091EF022617370748F0611571055C
:1033300039F42091E8002E772093E80001C0B9010C
:10334000FC0120E06115710579F18091F302882379
:10335000F1F18530F1F18091E80083FD3CC080916E
:10336000E80082FD2EC08091E80080FFEBCF209125
:10337000F3008091F20090E0922B6115710551F0FD
:103380008830910538F421912093F1006150710942
:103390000196F3CF21E0089709F020E08091E80042
:1033A0008E778093E800CECF2111CFCF0AC08091D5
:1033B000F302882361F0853061F08091E80083FD9D
:1033C0000AC08091E80082FFF2CF80E0089582E099
:1033D000089583E0089581E008950895BC0184E094
:1033E0000E94DD250895BC0183E00E94DD2508953B
:1033F000AAE2B0E0EEEFF9E10C94952AE8EEF2E0F3
:1034000080EF92E02091F10021938E179F07D1F772
:103410008091E902833009F463C030F4813071F0A7
:10342000823009F49FC0B6C08A3009F48BC08B305B
:1034300009F46EC0893009F0ADC020C08091E80267
:10344000813A09F0A7C08091E800877F8093E80067
:103450008091EC029091ED02892B21F460E285ECE1
:1034600092E003C060E080E090E070E00E948F197D
:103470008091E8008B778093E8008CC08091E8020F
:10348000813209F087C08091EC029091ED020097A3
:1034900019F0039709F07EC08091E800877F809340
:1034A000E8008091E80082FD05C08091F30281115F
:1034B000F8CF70C02091F3008091F20090E0922B41
:1034C000029731F48091F100813011F0863021F4BF
:1034D0008091F1008093C4028091E8008B7756C000
:1034E0008091E802813A09F055C08091EC029091F8
:1034F000ED02892B09F04EC08091E800877F809310
:10350000E8008091E80080FFFCCF80915C0139C029
:103510008091E8028132F1F58091EC029091ED0208
:10352000892BC1F58091E800877F8093E8000E9495
:103530003B198091EA0280935C011092C2020E94C2
:10354000922828C08091E802813221F58091E8001C
:10355000877F8093E8000E943B198091EB02809363
:10356000C30218C08091E802813AA1F48091E8007A
:10357000877F8093E8008091E80080FFFCCF8091F6
:10358000C3028093F1008091E8008E778093E80079
:103590000E943B198091E80083FFE4C18091E8021A
:1035A0009091E902492F50E04A30510508F0DAC104
:1035B000FA01E059FF4F0C94022C803821F0823838
:1035C00009F0D0C108C08091E5029091E6029923EC
:1035D00089F082600FC08091EC028F70873008F014
:1035E000C1C18093E9008091EB0085FB882780F9B9
:1035F0001092E9009091E800977F9093E800809303
:10360000F1001092F10070C1282F2D7F09F0AAC19E
:10361000882319F0823061F0A5C18091EA028130DF
:1036200009F0A0C1933009F080E08093E6022EC03B
:103630008091EA0281112AC08091EC028F702FEFF5
:10364000280F263008F08EC18093E9002091EB000E
:1036500020FF1CC0933021F48091EB00806214C0E5
:103660009091EB0090619093EB0021E030E0A90194
:1036700002C0440F551F8A95E2F74093EA0010926A
:10368000EA008091EB0088608093EB001092E900E3
:103690008091E800877F8093E8000E943B1962C117
:1036A000811160C11091EA021F778091E300807858
:1036B000812B8093E3008091E800877F8093E8006E
:1036C0000E943B198091E80080FFFCCF8091E300CD
:1036D00080688093E300111102C082E001C083E0A2
:1036E0008093F3023FC18058823008F03BC12091A3
:1036F000EA023091EB022C3D53E0350779F583E087
:103700008A838AE289834FB7F894DE01139620E01A
:103710003EE051E2E32FF0E050935700E49120FFA8
:1037200003C0E295EF703F5FEF708E2F90E0EA30BC
:1037300010F0C79601C0C0968D939D932F5F2431E2
:1037400049F74FBF8091E800877F8093E8006AE2E5
:1037500070E0CE0101960E948F19B4C08091EC02F6
:103760009091ED02432F552743305105A9F068F49D
:103770004130510509F405C14230510509F0F2C04C
:1037800084E790E0EFEBF4E04BC04132510529F1C2
:103790004232510589F1E6C0C9019927813091056E
:1037A000A1F058F0029709F0DDC0E5E4F5E0E491FE
:1037B0008E2F90E0E5E4F5E030C0E3E9F5E0E49138
:1037C0008E2F90E0E3E9F5E028C0E9E6F5E0E4912A
:1037D0008E2F90E0E9E6F5E020C08430910508F0F6
:1037E000C1C0880F991FFC01E954FE4F0190F08180
:1037F000E02D89E090E014C08430910508F0B2C05B
:10380000FC01EE0FFF1FE155FE4F0190F081E02D0E
:10381000DC01A555BE4F8C9190E0009709F4A2C041
:103820002091E800277F2093E8002091EE0230915C
:10383000EF022817390708F4C90140E0009789F121
:103840002091F302222309F43DC02530D9F12091C3
:10385000E80023FD37C02091E80022FD2FC0209111
:10386000E80020FFEBCF4091F3002091F20030E020
:10387000342B009759F02830310540F4449140939F
:10388000F100319601972F5F3F4FF3CF41E0283091
:10389000310509F040E02091E8002E772093E80000
:1038A000CDCF4111CDCF0AC08091F302882351F0D2
:1038B000853041F08091E80083FD04C08091E800EC
:1038C00082FFF2CF8091E8008B778093E8004AC0B6
:1038D000803809F047C08091E800877F8093E80036
:1038E0008091E7028093F1008091E8008E77D3CE3B
:1038F000811138C08091EA029091EB0299270297DA
:103900008CF58091E800877F8093E8001091EA02AF
:103910001093E7020E943B19111106C08091E30049
:1039200087FD02C081E001C084E08093F30242E0A1
:1039300061EC81E00E945A1942E061EC82E00E9451
:103940005A1942E261EC85E00E945A1942E261ECA8
:1039500083E00E945A1942E260EC84E00E945A1906
:103960008091F3028091E80083FF10C08091E8000D
:10397000877F8093E8008091EB0080628093EB006A
:1039800005C082E190E0E3E3F5E04ACFAA96E3E0E8
:103990000C94B12A1F920F920FB60F9211242F93FD
:1039A0003F934F935F936F937F938F939F93AF93C7
:1039B000BF93CF93DF93EF93FF93C091E900CF7054
:1039C0008091EC00D82FD17080FDD0E81092E900F2
:1039D0008091F000877F8093F00078940E94F8191E
:1039E0001092E9008091F00088608093F000CD2B68
:1039F000CF70C093E900FF91EF91DF91CF91BF911C
:103A0000AF919F918F917F916F915F914F913F9176
:103A10002F910F900FBE0F901F901895E8EDF0E0DA
:103A200080818E7F80831092E2001092DA001092E3
:103A3000E100A0EEB0E08C9181608C9380818F7763
:103A4000808319BCA7EDB0E08C918E7F8C93808130
:103A50008F7E80831092C1020895A0E0B0E0E3E37E
:103A6000FDE10C94902AC8EDD0E088818F7E888398
:103A7000E7EDF0E080818160808384E082BF81E0B7
:103A80008093C10288818E7F888302EE10E0F80166
:103A900010821092DA0081EEC82ED12CF60110822D
:103AA00088818F77888388818068888388818F7DEB
:103AB000888319BC1092F3021092E7021092E6027A
:103AC0001092E50290EEE92EF12CF70180818B7FB8
:103AD000808388818160888342E060E080E00E948A
:103AE0005A19F60180818E7F8083F8018081816080
:103AF0008083808188608083F70180818E7F8083CE
:103B0000888180618883CDB7DEB7E8E00C94AC2A69
:103B10001F920F920FB60F9211242F933F934F9342
:103B20005F936F937F938F939F93AF93BF93EF9325
:103B3000FF938091E10082FF09C08091E20082FF43
:103B400005C08091E1008B7F8093E1008091DA00D5
:103B500080FF2AC08091D80080FF26C08091DA00C3
:103B60008E7F8093DA008091D90080FF18C080E1B9
:103B700089BD82E189BD09B400FEFDCF81E080935B
:103B8000F3028091C10281110FC00E940E1D0E949C
:103B90002D1D8091E20084608093E20005C019BC75
:103BA0001092F3021092C1028091E10080FF17C0D1
:103BB0008091E20080FF13C08091E2008E7F8093AD
:103BC000E2008091E20080618093E2008091D80061
:103BD00080628093D80019BC85E08093F3028091C5
:103BE000E10084FF30C08091E20084FF2CC080E1BE
:103BF00089BD82E189BD09B400FEFDCF8091D80066
:103C00008F7D8093D8008091E1008F7E8093E100CA
:103C10008091E2008F7E8093E2008091E2008160DB
:103C20008093E2008091E702882311F084E007C0CE
:103C30008091E30087FD02C081E001C083E08093B2
:103C4000F3028091F3028091E10083FF27C080910D
:103C5000E20083FF23C08091E100877F8093E10031
:103C600082E08093F3021092E7028091E1008E7F60
:103C70008093E1008091E2008E7F8093E20080914A
:103C8000E20080618093E20042E060E080E00E9418
:103C90005A198091F00088608093F000FF91EF91B5
:103CA000BF91AF919F918F917F916F915F914F9154
:103CB0003F912F910F900FBE0F901F90189520915C
:103CC000E4003091E50095E64091EC00842F81708E
:103CD00040FF23C08091E80080FD1DC08091F30269
:103CE000882399F0853099F08091EB0085FD11C013
:103CF0004091E4005091E5002417350729F39150D5
:103D000011F09A01E1CF84E0089582E0089583E004
:103D1000089581E0089580E008954091E80042FF11
:103D2000DDCF0895EF92FF920F931F93CF93DF9310
:103D30007C018B010E945F1E811119C0E7010115F2
:103D40001105A1F08091E80085FD0AC08091E8008E
:103D50008E778093E8000E945F1E882381F307C05E
:103D600089918093F10001501109E9CF80E0CDB72E
:103D7000DEB7E6E00C94AE2ACF932091F302243014
:103D800029F5C091E900CF703091EC00232F21700C
:103D900030FD20E8C22B23E02093E9002091E800C9
:103DA00020FF11C040E050E060E270E00E94921EEF
:103DB000882321F01092F0021092F1028091E80025
:103DC0008E778093E800CF70C093E900CF9108957B
:103DD000EF92FF920F931F93CF93DF938091930302
:103DE00080FF08C00CE013E088E4E82E83E0F82EA2
:103DF000F8011BC0ECE0F3E088E493E0118210824C
:103E00001282138234968E179F07C1F7EBCF3817B3
:103E100008F4832F8383381B3183281B2083981B4E
:103E200092833496EE16FF0641F092812081318113
:103E3000892F291760F7822FEACF8091000388230A
:103E400081F180915E0190915F01892B51F5809104
:103E50005D01882331F165E070E084E80E94A829C3
:103E6000892B19F010925D011AC0CCE0D3E065E017
:103E700070E088810E941B2A65E070E089810E94C1
:103E80001B2A65E070E08A810E941B2A65E070E0D1
:103E90008B810E941B2A2496EC16FD0641F70E9496
:103EA0006E2A579A8BB18F779BB190682FB7F89491
:103EB000E016F10699F0F80131918F0148E09BB9C5
:103EC000000000C037FF8BB9330F000000C000C0F6
:103ED00000C08BB900C04A9591F7EACF2FBF8FE59C
:103EE00094E00197F1F700C00000CDB7DEB7E6E03F
:103EF0000C94AE2A9091930390FF0DC0ECE0F3E098
:103F00008183608342831382349693E0E834F90717
:103F1000B9F70E94E81E089580919303282F2695F3
:103F200030E02115310519F48170826005C02B3213
:103F3000310524F081708465809393030895CF92B6
:103F4000DF92EF92FF926B017C010E948C1FB70100
:103F5000A60188E090E00E945F2BFF90EF90DF9039
:103F6000CF90089580919703882319F08150809312
:103F700097036091930370919403809195039091BE
:103F800096030E949F1F089580919703833018F431
:103F90008F5F809397036091930370919403809156
:103FA0009503909196030E949F1F0895E3E9F3E023
:103FB00083E0808311828FEF828383831482608108
:103FC0007181828193810E949F1F0895A0E0B0E0DB
:103FD000ECEEFFE10C948E2AE82EF62EE901E42F98
:103FE000F0E0611106C0E956FA4FE4914E2F2E2FF2
:103FF00071C0062F10E0E956FA4F4491F42FC42EF9
:10400000D12C26E0829FC00111242FEF30E0B901AE
:104010000E94722A5BEA5603C001579F900D11243B
:104020008E0D911D8E0D911D582F550F580FD901D2
:10403000A01BB10BAC9DC001AD9D900DBC9D900D22
:104040001124E92FF59ED0011124AB2FBB27790154
:10405000EA1AFB0AEC9CD001ED9CB00DFC9CB00D63
:1040600011245901A51AB108A09E7001A19EF00C5F
:10407000B09EF00C1124EF2CFF242E193F092C9D2B
:1040800080012D9D100D3C9D100D1124212F6230BB
:10409000710591F048F461157105E1F06130710529
:1040A000B9F4242F4B2F16C06430710569F040F02D
:1040B0006630710579F00CC0242F492FE12F0AC01A
:1040C000492FEF2F2B2F06C0292FE42F412F02C09D
:1040D000292FEB2F49832883EA831B82CDB7DEB7D4
:1040E000EAE00C94AA2AA4E0B0E0E9E7F0E20C943C
:1040F000962A9091930390FF0AC09E012F5F3F4F35
:104100000E94E61F4B8169818A810E947A1F249652
:10411000E2E00C94B22AA4E0B0E0E1E9F0E20C9411
:10412000892AF82E762EE42E622E9091930390FF2A
:1041300067C0E92FE695AE2FB0E0A154BE4F8C9139
:10414000809307039E7F923061F49E012F5F3F4F63
:104150008F2D0E94E61F4B8169818A810E947A1F00
:104160003DC0823019F4E090960338C0863019F4CF
:10417000F090940333C08930D9F3893179F5E9514E
:104180008E2F8170582EE695F0E0E956F94FE491B4
:104190000E2F10E08CE0C82E83E0D82EA12CB12C7D
:1041A0009FE0892E912CC501B4010E94722A8F2DA7
:1041B000511002C0860F01C0861B96014E2D672D3F
:1041C0000E94E61FA00EB11E84E0C80ED11C88E438
:1041D000C81683E0D80639F70E94E81EF0929403CF
:1041E00070929503E0929603662051F060919303DC
:1041F0007091940380919503909196030E949F1F64
:104200002496EFE00C94A52AE3E9F3E043812CE047
:10421000421B08F440E021E0628181810E948B20F2
:104220000895E3E9F3E043812CE0420F08F44FEFF7
:1042300021E0628181810E948B200895E3E9F3E00F
:1042400062812FEF621B08F460E021E043818181ED
:104250000E948B200895E3E9F3E062812FEF620F63
:1042600008F46FEF21E0438181810E948B20089543
:10427000E3E9F3E0818121E0438162818C500E9477
:104280008B200895E3E9F3E0818121E0438162819D
:10429000845F0E948B2008958D3E39F49091FD0239
:1042A00097FF35C01092FD0259C08E3E29F49091BF
:1042B000FD021916BCF32BC09091FC028F3E29F42D
:1042C00097FF25C01092FC0249C0803F19F41916CF
:1042D000CCF31DC09091FE02893F29F41916BCF45D
:1042E0001092FE023BC08A3F19F497FF10C0F8CF2E
:1042F0008B3F39F49091FF0297FF09C01092FF02A3
:104300002DC08C3F21F49091FF021916BCF39FE061
:10431000980F983080F421E030E0A90102C0440FEA
:10432000551F9A95E2F7CA0180959091FB02892367
:104330008093FB0213C08D3F21F48091F6028E7FA3
:104340000BC08E3F21F48091F6028D7F05C08F3F18
:1043500029F48091F6028B7F8093F6028091FC0213
:10436000811106C08091FD02811102C01092F502F8
:104370008091FE02811106C08091FF02811102C06E
:104380001092F40208958091F60280FD18C081FD1C
:1043900014C082FD16C08091F402882381F08C3312
:1043A00080F427E0829FC00111246CE370E00E943A
:1043B000EE2B862F672B19F005C083E0089581E06E
:1043C000089587E008958091F60280FD17C081FD71
:1043D00017C082FD19C08091F502882399F08C33B3
:1043E00098F428E3829FC00111246CE370E00E94DE
:1043F000EE2B862F672B49F481E008958EE0089517
:104400008CE1089588E0089588E308958D3E21F4B5
:104410000E94E321819504C08E3E29F40E94E3218D
:104420008093FD0208958F3E21F40E94E32181953F
:1044300004C0803F29F40E94E3218093FC02089588
:10444000893F19F40E94C32105C08A3F31F40E94BC
:10445000C32181958093FE0208958B3F21F40E9431
:10446000C321819504C08C3F29F40E94C32180930D
:10447000FF0208959FE0980F983078F421E030E033
:10448000A90102C0440F551F9A95E2F7CA01909105
:10449000FB02892B8093FB0208958D3F21F48091CC
:1044A000F60281600BC08E3F21F48091F60282609B
:1044B00005C08F3F29F48091F60284608093F60254
:1044C000089560919303669570E04BE050E080E6BC
:1044D00091E00E94382D892B19F481E08093080324
:1044E0000E943D26909302038093010308959091CA
:1044F000930390FF36C09170811102C0926006C094
:104500008B3210F0946502C0880F982B9093930320
:10451000662351F060919303709194038091950309
:10452000909196030E949F1F60919303669570E09F
:104530004BE050E080E691E00E94382D892B19F085
:104540001092080302C00E94612281E0809304035C
:1045500020E04091960360919503809194030E941E
:104560008B20089561E00E94772208958091930343
:104570008695815009F48AE261E00E9477220895CD
:104580008091930386958F5F8B3208F081E061E024
:104590000E94772208950E943D262091FC0221115D
:1045A00004C02091FD02222321F09093FA0280930F
:1045B000F9022091FE02211104C02091FF02222362
:1045C00021F09093F8028093F702E0919D03F0911F
:1045D0009E03309731F00480F581E02D8BEF92E05F
:1045E000099508958091C4020895089522E02093CA
:1045F000E9002FEF3091E800215035FD06C035ED80
:104600003A95F1F700002111F5CF2091E80025FF40
:104610000BC040E050E065E070E00E94921E809187
:10462000E8008E778093E8000895CF93DF93209180
:104630005C01222339F02091A60327FF03C060E22A
:1046400025E002C068E021E02093E9002FEF3091DF
:10465000E800215035FD06C035ED3A95F1F7000030
:104660002111F5CF2091E80025FF1DC0EC018091BC
:104670005C01811105C040E050E068E070E003C0DB
:1046800070E040E050E0CE010E94921E8091E80070
:104690008E778093E80080E2FE01A5ECB2E0019005
:1046A0000D928A95E1F7DF91CF910895A0E0B0E0F7
:1046B000ECE5F3E20C948D2AFC01A280948081E069
:1046C0008483ECE9F6E0B490EBE1F7E0E491C8E430
:1046D000D3E0FCE0EF2EF3E0FF2ECC24CA94D12CE3
:1046E000EB190E2F10E022E02A1530F08091940390
:1046F0008883809195038983911003C01B821A825D
:1047000055C08B818823F9F081508B832FEF829FD6
:10471000C00111246C8170E00E94722AFB01FF2706
:10472000E456F94F8491E82FEB192FEFE29FC00177
:104730001124B8010E94722A80919603689FB001EB
:1047400011247A8333C00E94092B20919603269569
:10475000215830E0A901440F551F322F2227240F82
:10476000351F232F33278217930704F582E08A151C
:1047700088F40E94092BB6010E94EE2B88830E94C8
:10478000092B209195032695622F70E00E94EE2B55
:10479000280F29831A8280919603843120F0893C66
:1047A00018F088EC01C084E18C838B8397014A81E7
:1047B000698188810E94E61F259624E0E20EF11CA3
:1047C00083E0C339D80709F08ECF0E94E81ECDB729
:1047D000DEB7EBE00C94A92AEF92FF920F931F93A0
:1047E000CF93DF938C01CCE0D3E0E12CF12CF801E6
:1047F0008481F7E0EF16F1041CF4882339F002C03D
:10480000811104C09E014091960302C09E0140E0C8
:1048100060919503809194030E94E61F8FEFE81A40
:10482000F80A24969FE0E916F10409F70E94E81EB1
:10483000F801848190E00196817099278483CDB737
:10484000DEB7E6E00C94AE2AA0E0B0E0EAE2F4E2E3
:104850000C948C2AEC014C81042F10E09801D801B3
:104860000E94C52B9B01AC010E94902B6B017C0127
:10487000E0E2F0E0E01BF10BA5E5B0E09B01AC014C
:104880000E94902B4B015C019F01DF010E94082CCC
:104890009B01AC010E949B2B9B01AC012C0D3D1D8B
:1048A0004E1D5F1DC501B4010E94A32B822FF22E65
:1048B00099E2921728F093E0299F900111240DC0EE
:1048C00025E530E0281B3109C901880F991F280F01
:1048D000391F37FF02C02F5F3F4F35952795122FA5
:1048E00010959CE0C92E93E0D92E00E085E5E82ED6
:1048F000EF1801FD02C08E2D01C08F2D9601412FB2
:10490000609195030E94E61F0F5F84E0C80ED11CE2
:104910000F3079F70E94E81E8C81811102C091E06E
:1049200003C0803219F49FEF90936D0190916D0157
:10493000890F8C83CDB7DEB7ECE00C94A82A0F93D7
:104940001F93CF93DF93CCE0D3E0FE01118210825E
:1049500012821382349683E0E834F807B9F700E056
:1049600010E080910A03082E000C990B0817190714
:1049700094F080916C01082E000C990B8017910720
:1049800054F09E01409196036091950380919403A9
:104990000E94E61F04C0198218821A821B820F5FD0
:1049A0001F4F24960F301105E1F60E94E81E8091FA
:1049B0006B0190910A03980F90930A0320916C0168
:1049C000280F20936C01121614F49E301CF0819570
:1049D00080936B01DF91CF911F910F910895A0E01B
:1049E000B0E0E5EFF4E20C948F2AFC01828180FFB5
:1049F00003C0DD24DA9402C0DD24D3940CE013E07C
:104A0000C0E0D0E02FE0B22EF801118210821282B5
:104A1000138294E0E92EF12CC12C809109038C0DB6
:104A200080312CF06B2D0E94E02B892F02C087FD76
:104A3000815F082E000C990BC817D90791F480915B
:104A400096038E9DA0018F9D500D1124559547957D
:104A500055954795980160919503809194030E9424
:104A6000E61FCD0CF1E0EF1AF108B9F621960C5FC4
:104A70001F4FCF30D10541F60E94E81E80910903F7
:104A800091E0D91206C0811102C08EE007C08150AA
:104A900005C090E00196BE010E94EE2B80930903B1
:104AA000CDB7DEB7E9E00C94AB2AEF92FF921F93EB
:104AB000CF93DF93EC018CE0E82E83E0F82E10E03A
:104AC0008C8197014091960360919503810F0E941C
:104AD000E61F1F5E84E0E80EF11C1F3F89F70E946D
:104AE000E81E9A818C8190FF02C08F5F01C08150C7
:104AF0008C83DF91CF911F91FF90EF900895A4E0F8
:104B0000B0E0E5E8F5E20C94942A8C0180910B0367
:104B100081110AC09E012F5F3F4F4FEF6FEF0E9440
:104B2000E61F8A8180930B03F8018481813051F064
:104B300028F0823061F440910B030AC080910B038E
:104B400040E007C060910B0340E080E003C040E01C
:104B500080E060E00E947A1FF801848190E0019675
:104B600063E070E00E94EE2B84832496E4E00C94D2
:104B7000B02ACF93DF93EC01E3E9F3E04381628154
:104B80008C810E9473208C818F5F8C83DF91CF9109
:104B90000895CF93DF93EC01EC81F0E0E456F94FF8
:104BA0004491E3E9F3E0628181810E9473208C816A
:104BB0008F5F8C83DF91CF9108958093A8037093CA
:104BC000AA036093A9038091F302843001F585E084
:104BD0008093E9008FEF9091E800815095FD06C029
:104BE00095ED9A95F1F700008111F5CF8091E800DD
:104BF00085FF0DC040E050E063E070E088EA93E09C
:104C00000E94921E8091E8008E778093E8000895BC
:104C100078941F920F920FB60F9211248F939F9347
:104C2000AF93BF938091A2039091A303A091A4039B
:104C3000B091A5030196A11DB11D8093A20390938D
:104C4000A303A093A403B093A503BF91AF919F9139
:104C50008F910F900FBE0F901F9018959C014FB72A
:104C6000F8948091A2039091A303A091A403B09122
:104C7000A5034FBF821B930B08952FB7F894809123
:104C8000A2039091A303A091A403B091A5032FBF09
:104C900008951F920F920FB60F9211248F939F9336
:104CA000AF93BF938091A103811113C08091A203A0
:104CB0009091A303A091A403B091A5034196A11DD7
:104CC000B11D8093A2039093A303A093A403B09378
:104CD000A503BF91AF919F918F910F900FBE0F9041
:104CE0001F90189520915C012223C9F02091A60302
:104CF00027FF15C0262F2695269526952E31C8F418
:104D0000FC01E20FF11D677081E090E001C0880FA7
:104D10006A95EAF780959281892382830895FC0140
:104D200006962281621301C012823196E817F907B4
:104D3000C1F7089520919F033091A00328173907E8
:104D400071F09093A00380939F03E0919D03F091F5
:104D50009E03309721F00084F185E02D0995089598
:104D600020919B0330919C032817390771F0909391
:104D70009C0380939B03E0919D03F0919E033097E9
:104D800021F00680F781E02D09950895E0919D03BB
:104D9000F0919E03309729F00190F081E02D099564
:104DA000089580E00895CF93DF93EC01EA85FB85B9
:104DB000309719F06C857D8509958B810E94A01034
:104DC0008C810E94A7100E94AE1086E0FE01119215
:104DD0008A95E9F7DF91CF910895CF93DF93EC01A6
:104DE0008D8181FD18C082608D83909198038B81A5
:104DF000892B809398039091C2028C81892B809398
:104E0000C2020E94AE10E885F985309721F06C85CA
:104E10007D85CE01099510929A03109299038D8198
:104E200080FD03C0CE010E94D326DF91CF9108956B
:104E3000CF93DF930E94092B66E070E00E94EE2B77
:104E4000D82F0E94092B6EE070E00E94EE2BC82F35
:104E50006D2F782F80E00E946F0E0497C59718F48D
:104E60008D2F9C2F02C00E941827DF91CF910895AB
:104E70009091930390FF04C09695981748F003C053
:104E8000811106C090E0961718F40E94C022089580
:104E90000E94B2220895882311F0FA0101C0FB019B
:104EA0000995089580E090E00E94B02680E090E0AF
:104EB0000E949A26109298030E94AE10EBEFF2E047
:104EC00085E0DF011D928A95E9F71092F5021092B4
:104ED000F4021092F6020E94CB220895CF92DF9244
:104EE000FF920F931F93CF93DF936C010091020207
:104EF0008091AD02082BC7E0D0E010E0C8010C2E75
:104F000002C0959587950A94E2F780FD04C0219729
:104F1000A8F7F12C09C0FC2EB6018C2F0E946F0E51
:104F20000E94880E019799F38F2DDF91CF911F91E9
:104F30000F91FF90DF90CF900895CF93DF93EC0116
:104F40000E946E27BE010E946F0E0E94880EDF91A4
:104F5000CF910895292F9E3078F5863068F590E03E
:104F600036E0239F800D911D1124682F677023E088
:104F7000969587952A95E1F7FC01EE0FFF1FE80F44
:104F8000F91FE555FC4F40E050E080E0219130E012
:104F9000062E02C0369527950A94E2F72170332732
:104FA000042E01C0220F0A94EAF7822B4F5F5F4F55
:104FB0004330510559F7089580E00895292F9E3018
:104FC00088F5863078F590E036E0239F800D911DBE
:104FD0001124282F277051E001C0550F2A95EAF7B8
:104FE00023E0969587952A95E1F7FC01EE0FFF1FC8
:104FF000E80FF91FE555FC4F20E030E070E04081FC
:10500000CB01022E02C0969587950A94E2F7817033
:10501000819584278523842781932F5F3F4F2330F9
:10502000310569F70895A0E2B0E0E9E1F8E20C94F7
:10503000952A0E948317182F8091F1028823A9F0E6
:105040002FEF80E792E0215080409040E1F700C0D0
:10505000000085E08983812F0E9457178A838EEF95
:105060008B83CE0101960E94BC1E109302020E9407
:105070005227A096E3E00C94B12A21E030E001C071
:10508000220F8A95EAF720958091020282230E94DE
:105090001328089521E030E001C0220F8A95EAF735
:1050A00080910202822B0E94132808958093AD0202
:1050B0000E9452270895CF93FC0180819181238122
:1050C0003481232B31F09F3F31F491E08F3F19F46D
:1050D00003C091E001C090E0C92FC17090FD1CC0D9
:1050E000808191810E949D2792959F70963079F0E2
:1050F00010F4925001C09A50923088F4803F71F0C1
:1051000018F4883E60F40AC0843F49F407C0883E22
:1051100028F0813F21F402C0C0E001C0C1E08C2F23
:10512000CF91089580915C01882331F08091A6038E
:1051300087FF02C08EE101C086E0E5E3F2E0DF0117
:105140001D928A95E9F70E9452270895882321F03D
:105150000E94A0100E94AE100895882339F090910B
:105160009803892B809398030E94AE10089588239A
:1051700021F00E94A7100E94AE100895882339F0F4
:105180009091C202892B8093C2020E94AE100895B2
:10519000882391F19CEF980F913A30F4682F83E3C4
:1051A00092E00E9472260DC090E2980F983060F451
:1051B000877091E001C0990F8A95EAF7892F0E94C4
:1051C000A7100E94AE1008959BE5980F933028F425
:1051D00080E090E00E94B026089598E5980F9731FE
:1051E00028F480E090E00E949A2608958D3E20F0F9
:1051F0000E944C210E94CB220895CF93882309F46A
:105200009FC0C82F8CEF8C0F813A08F05BC0809153
:105210005C018823E1F08091A60387FF18C0EC2F82
:10522000E695E695E695F0E0ED5CFD4F8281282F4E
:1052300030E04C2F477081E090E002C0880F991F4A
:105240004A95E2F782239323892B59F411C0E5E3B1
:10525000F2E08191C81729F082E0EB33F807C9F733
:1052600007C06C2F83E392E00E9472260E94AE106A
:1052700080915C018823B1F08091A60387FF12C062
:10528000EC2FE695E695E695F0E0ED5CFD4FC770F6
:1052900081E090E001C0880FCA95EAF79281892BDE
:1052A000828320C0A5E3B2E0EFEF80E09D91C917B3
:1052B000C9F0EF3F19F4911101C0E82F8F5F8630DC
:1052C000A9F735C080E28C0F883078F4C77081E090
:1052D00090E001C0880FCA95EAF79091C202892B2D
:1052E0008093C2020E94AE102BC0EBE5EC0FE330BE
:1052F00040F4F0E0E658FE4F808190E00E94B02636
:105300001FC0E8E5EC0FE73150F4F0E0EE0FFF1FAF
:10531000E358FE4F808191810E949A2611C0CD3EB4
:1053200078F08C2F0E9406220E94CB2209C0EF3F0A
:10533000C9F20E2E000CFF0BED5CFD4FC283D2CFE5
:10534000CF9108951092B9008CE08093B800089531
:10535000A0E0B0E0EEEAF9E20C948D2AB82EEB0161
:105360000E943D266C01C431D10558F0CF3F8FEF2C
:10537000D80759F0CE0164E170E00E94722A7B01E7
:1053800007C0EE24E394F12C03C025E0E22EF12CBB
:1053900084E8A82E94EA992E1092BC009092BC004A
:1053A0000E943D268C018091BC0087FD07C0C8018A
:1053B0000E942E26E816F906B0F729C08091B900A0
:1053C000887F883041F08091B900887F803119F062
:1053D0000FEF1FEF1EC0B092BB00A092BC000E9456
:1053E0003D268C018091BC0087FD07C0C8010E944A
:1053F0002E26E816F906B0F70AC08091B900887F1A
:10540000883111F0803421F700E010E00EC00EEF7B
:105410001FEFCF3F8FEFD80709F4BECFC6010E9420
:105420002E26C817D90708F0B7CFC801CDB7DEB709
:10543000EBE00C94A92A0F931F93CF93DF93EB011A
:105440008093BB0084E88093BC000E943D268C01C1
:105450008091BC0087FD0DC0CF3F8FEFD807C1F30F
:10546000C8010E942E26C817D90790F78EEF9FEF2C
:105470000CC02091B900287F81E090E0283211F41F
:1054800080E090E0919581959109DF91CF911F91F6
:105490000F9108950F931F93CF93DF93EC0184E84E
:1054A0008093BC000E943D268C018091BC0087FD4A
:1054B0000DC0CF3F8FEFD807C1F3C8010E942E2641
:1054C000C817D90790F78EEF9FEF03C08091BB00FC
:1054D00090E0DF91CF911F910F91089584E980931F
:1054E000BC000895AA1BBB1B51E107C0AA1FBB1F2C
:1054F000A617B70710F0A61BB70B881F991F5A9560
:10550000A9F780959095BC01CD0108952F923F9207
:105510004F925F926F927F928F929F92AF92BF92C3
:10552000CF92DF92EF92FF920F931F93CF93DF936F
:10553000CDB7DEB7CA1BDB0B0FB6F894DEBF0FBECC
:10554000CDBF09942A88398848885F846E847D8419
:105550008C849B84AA84B984C884DF80EE80FD801B
:105560000C811B81AA81B981CE0FD11D0FB6F89491
:10557000DEBF0FBECDBFED0108958F929F92AF9217
:10558000BF92CF92DF92EF92FF92CF93DF93EC0125
:10559000688179818A819B816115710581059105F9
:1055A00021F464E279ED8BE597E02DE133EF41E002
:1055B00050E00E94712B49015A019B01AC01A7EAFE
:1055C000B1E40E94902B6B017C01ACEEB4EFA5011D
:1055D00094010E949E2BDC01CB018C0D9D1DAE1D04
:1055E000BF1DB7FF03C00197A109B0488883998305
:1055F000AA83BB839F77DF91CF91FF90EF90DF90DD
:10560000CF90BF90AF909F908F9008950E94BD2A39
:10561000089580E091E00E94BD2A0895A0E0B0E0E6
:105620008093000190930101A0930201B0930301C4
:105630000895DC01CB01FC01F999FECF06C0F2BD53
:10564000E1BDF89A319600B40D9241505040B8F740
:105650000895F999FECF92BD81BDF89A992780B53A
:105660000895A6E1B0E044E050E00C941B2BA8E1C3
:10567000B0E042E050E00C941B2BDC01A40FB51FFE
:105680004150504048F0CB01840F951F2E910E944D
:105690004E2B41505040D0F70895262FF999FECF58
:1056A00092BD81BDF89A019700B4021639F01FBA75
:1056B00020BD0FB6F894FA9AF99A0FBE0895039692
:1056C000272F0E944E2B0E944D2B252F0E944E2BE0
:1056D000242F0C944E2B0196272F0E944E2B0C94B6
:1056E0004D2B052E97FB1EF400940E94882B57FD2E
:1056F00007D00E94A32B07FC03D04EF40C94882BF8
:1057000050954095309521953F4F4F4F5F4F0895ED
:1057100090958095709561957F4F8F4F9F4F08951D
:105720000E94C52BA59F900DB49F900DA49F800D46
:10573000911D11240895B7FF0C94902B0E94902B7B
:10574000821B930B0895A1E21A2EAA1BBB1BFD011D
:105750000DC0AA1FBB1FEE1FFF1FA217B307E40750
:10576000F50720F0A21BB30BE40BF50B661F771FA8
:10577000881F991F1A9469F7609570958095909588
:105780009B01AC01BD01CF010895A29FB001B39F61
:10579000C001A39F700D811D1124911DB29F700D3A
:1057A000811D1124911D0895991B79E004C0991F52
:1057B000961708F0961B881F7A95C9F7809508956B
:1057C00087FB082E062687FD819567FD61950E945F
:1057D000D42B0EF4919507FC8195089597FB072E25
:1057E00016F4009407D077FD09D00E94722A07FCB6
:1057F00005D03EF4909581959F4F089570956195E1
:105800007F4F0895EE0FFF1F0590F491E02D09944E
:105810000E94C52B332312F48A1B9B0B0C94122C71
:105820000E94C52BB7FF0895821B930B08950F9319
:105830001F93CF93DF938230910510F482E090E0C4
:10584000E091CE03F091CF0320E030E0A0E0B0E0A3
:10585000309719F14081518102811381481759070E
:10586000C8F08417950769F4109731F012960C93DD
:10587000129713961C9327C00093CE031093CF0367
:1058800022C02115310519F04217530718F49A0167
:10589000BD01EF01DF01F801DBCF21153105F9F082
:1058A000281B390B2430310580F48A819B816115D6
:1058B000710521F0FB019383828304C09093CF0391
:1058C0008093CE03FE01329644C0FE01E20FF31F27
:1058D0008193919322503109398328833AC02091D2
:1058E000CC033091CD03232B41F42091060130915C
:1058F00007013093CD032093CC0320910401309114
:1059000005012115310541F42DB73EB7409108013D
:1059100050910901241B350BE091CC03F091CD038C
:10592000E217F307A0F42E1B3F0B2817390778F076
:10593000AC014E5F5F4F2417350748F04E0F5F1FD5
:105940005093CD034093CC038193919302C0E0E048
:10595000F0E0CF01DF91CF911F910F910895CF9388
:10596000DF93009709F481C0FC0132971382128201
:10597000A091CE03B091CF03109781F420813181A3
:10598000820F931F2091CC033091CD032817390744
:1059900051F5F093CD03E093CC0367C0ED0120E017
:1059A00030E0CE17DF0740F44A815B819E0141154C
:1059B0005105F1F0EA01F5CFD383C28340815181D3
:1059C000840F951FC817D90759F488819981840FCE
:1059D000951F0296918380838A819B819383828322
:1059E0002115310529F4F093CF03E093CE033DC098
:1059F000E901FB83EA8349915991C40FD51FEC1744
:105A0000FD0761F480819181840F951F0296E90161
:105A100099838883828193819B838A83E0E0F0E08D
:105A200012968D919C911397009719F0FD01DC015E
:105A3000F7CF8D919C9111979D012E5F3F4F820F63
:105A4000931F2091CC033091CD032817390769F4B7
:105A5000309729F41092CF031092CE0302C0138224
:105A60001282B093CD03A093CC03DF91CF91089520
:105A7000FC014150504030F001900616D1F73197AB
:105A8000CF010895882799270895FB01DC0104C000
:105A90008D910190801921F441505040C8F7881B26
:085AA000990B0895F894FFCF63
:105AA800010000000000D0032000F2221523F62296
:105AB800F319EE19ED19000000000000FC15981606
:105AC80034150000000000000000E01578161715D6
